:020000040800F2
:1000000000000220690A0008050900080709000825
:10001000090900080B0900080D090008000000008C
:100020000000000000000000000000000F090008B0
:100030001109000800000000130900081509000854
:10004000B90A0008B90A0008B90A0008B90A000884
:10005000B90A0008B90A0008B90A0008B90A000874
:10006000B90A0008B90A0008B90A0008B90A000864
:10007000B90A0008B90A0008B90A0008B90A000854
:10008000B90A0008B90A0008B90A0008000000000F
:10009000000000000000000000000000B90A000895
:1000A000B90A0008B90A0008B90A0008B90A000824
:1000B000B90A0008B90A0008B90A0008B90A000814
:1000C000B90A0008B90A0008B90A0008B90A000804
:1000D000B90A00081D090008B90A0008000000005C
:1000E000B90A0008B90A0008B90A000800000000AF
:1000F000000000000000000000000000B90A000835
:1001000000000000B90A0008B90A0008B90A00088E
:1001100000000000000000000000000000000000DF
:1001200041090008B90A0008B90A0008B90A00081C
:10013000B90A0008000000000000000000000000F4
:10014000000000000000000000000000B90A0008E4
:10015000B90A0008B90A0008B90A0008B90A000873
:10016000B90A0008B90A00080000000000000000F9
:10017000000000000000000000000000000000007F
:1001800000000000B90A00080000000000000000A4
:08019000B90A0008B90A0008D1
:1001980053B94AB9002908BF00281CBF4FF0FF31E6
:1001A8004FF0FF3000F00CB8ADF1080C6DE904CE4B
:1001B80002F09AFADDF804E0DDE9022304B07047A2
:1001C800704700BF0348044B834202D0034B03B17E
:1001D80018477047100000201000002000000000A1
:1001E8000548064B1B1AD90F01EBA301491002D091
:1001F800034B03B11847704710000020100000207F
:100208000000000010B5064C237843B9FFF7DAFF69
:10021800044B13B10448AFF300800123237010BDD1
:100228001000002000000000702B000808B5054BE6
:100238001BB105490548AFF30080BDE80840FFF74A
:10024800CFBF00BF0000000014000020702B000882
:1002580000B585B00023009301930293039355489A
:10026800554A02604FF48032426083600122026185
:10027800027680F82030C36250498162C3600B2344
:10028800C36180F83020426100F000FD00286DD184
:10029800112300930123019302936946454800F016
:1002A8001FFE002865D100230093022301936946AD
:1002B800404800F015FE00285ED101230093032377
:1002C800019369463B4800F00BFE002857D10223F2
:1002D8000093042301936946364800F001FE002884
:1002E80050D103230093052301936946314800F058
:1002F800F7FD002849D1042300930623019369469A
:100308002C4800F0EDFD002842D105230093072377
:1003180001936946274800F0E3FD00283BD10623F6
:100328000093082301936946224800F0D9FDA8BB31
:10033800072300930923019369461E4800F0D0FD66
:1003480078BB082300930A2301936946194800F0F3
:10035800C7FD48BB092300930B2301936946154841
:1003680000F0BEFD18BB05B05DF804FB00F074F9A1
:100378008EE700F071F996E700F06EF99DE700F05E
:100388006BF9A4E700F068F9ABE700F065F9B2E7AC
:1003980000F062F9B9E700F05FF9C0E700F05CF936
:1003A800C6E700F059F9CCE700F056F9D2E700F0BB
:1003B80053F9D8E78C000020002001400100000F0D
:1003C80070B588B0002303930493059306930793AD
:1003D800026803F1804303F590339A4201D008B0D4
:1003E80070BD04460025009503F58C335A6C42F421
:1003F80080725A645A6C02F480720092009A0195D5
:100408001A6B42F001021A631A6B02F001020192A0
:10041800019A02951A6B42F002021A631B6B03F0F1
:1004280002030293029BFF2303930326049603A966
:10043800134801F007F903960496059503A9114896
:1004480001F000F91048114B036045608560C560F4
:100458004FF4806303614FF4006343614FF400532A
:1004680083614FF48073C3610562456200F004FF45
:1004780018B9054BA3639C63B1E700F0EDF8F8E702
:1004880000000240000402402C00002010640240DA
:1004980000B586464FF0000C4FF6FF700CE04008A0
:1004A800013B3BB110F0010FF9D04AF2010282EA98
:1004B8005000F5E70CF1010C614504DD1EF80C3025
:1004C80058400823EDE75DF804FB000000B583B051
:1004D80000210191094B1A6B42F480021A631B6BCD
:1004E80003F480030193019B0A46382000F022FEA2
:1004F800382000F02FFE03B05DF804FB00380240FE
:1005080030B58BB000240594069407940894099498
:1005180001941E4B1A6B42F004021A631A6B02F024
:1005280004020192019A02941A6B42F080021A6343
:100538001A6B02F080020292029A03941A6B42F03C
:1005480001021A631A6B02F001020392039A0494DF
:100558001A6B42F002021A631B6B03F00203049346
:10056800049B0B4D22464FF46041284601F052F996
:100578004FF460430593012306930794089405A953
:10058800284601F05FF80BB030BD00BF00380240CC
:100598000008024008B51A4B1B78012B1AD000221C
:1005A8004FF40051174801F035F9154B5B78012BD2
:1005B80017D000224FF48041124801F02BF9104B5C
:1005C8009B78012B14D000224FF400410D4801F014
:1005D80021F908BD01224FF400510A4801F01AF927
:1005E800E3E701224FF48041064801F013F9E6E7FA
:1005F80001224FF40041034801F00CF9E9E700BF7C
:10060800D40000200008024003680E4A934200D03C
:10061800704710B582B0002201921A6801925B6897
:100628000193019B084C0346084A0949204600F0FB
:10063800ADF8FFF7AFFF08222146064802F041F85F
:1006480002B010BD00100140D8000020D4000020E6
:10065800E00000204001002072B6FEE700B595B02A
:100668003022002108A802F09DF900230393049387
:1006780005930693079301931F4A116C41F080512B
:100688001164126C02F080520192019A02931B4B82
:100698001A6842F440421A601B6803F4404302930C
:1006A800029B012308934FF48033099302230E938E
:1006B8004FF480020F920C22109260221192129332
:1006C8000423139308A801F0ABF888B90F23039308
:1006D80002230493002305934FF480520692079354
:1006E800032103A801F0ECFA20B915B05DF804FB6A
:1006F800FFF7B2FFFFF7B0FF00380240007000407C
:1007080008B500F0FDF9FFF7A9FFFFF7F9FEFFF7BD
:10071800DDFEFFF79DFD00F049F900F017F90B2207
:100728000749084800F0DEFA07480268D36843F032
:100738001003D3600822054901F0C3FFFEE700BF9C
:10074800E00000208C00002040010020D80000209C
:1007580010B582B0044601238DF8003061F07F01A6
:100768008DF801108DF8022003216846FFF790FEEE
:100778008DF80300030A8DF804304FF0FF3305228B
:100788006946204601F04DFD02B010BDF0B5C1B07C
:1007980004460D4617461E460621FFF779FE94F8D3
:1007A80006C0E3794CEA032C604501D041B0F0BDA6
:1007B8006178042906D0052945D001223046FFF783
:1007C800C7FFF3E7A378E77847EA03272379647933
:1007D80044EA032423B23A190B2A2FDC01228DF8AC
:1007E80000208DF8011093408DF8023000220BE0B4
:1007F800BB1835F8131053000333080A0DF803002B
:10080800931C0DF8131001329442F1DC6500ADB26F
:10081800E91C89B26846FFF73BFE630003330DF815
:1008280003000234000A0DF814006A1D4FF0FF336C
:1008380092B26946304601F0F4FCB7E7022230462E
:10084800FFF786FFB2E7A278E37843EA022320792C
:10085800627942EA0022022B2ED8B2F57F4F23D0CC
:100868002ABBFA5401238DF800308DF80110A378C3
:100878008DF80230E3788DF8033023798DF8043051
:1008880063798DF8053006216846FFF701FE8DF87B
:100898000600000A8DF807004FF0FF33082269466A
:1008A800304601F0BEFC81E70122FA54DAE7032260
:1008B8003046FFF74DFF79E702223046FFF748FF41
:1008C80074E7000082B0002100910B4B5A6C42F48F
:1008D80080425A645A6C02F480420092009A019154
:1008E8001A6C42F080521A641B6C03F08053019317
:1008F800019B02B0704700BF00380240FEE7FEE7E8
:10090800FEE7FEE7FEE770477047704708B500F05E
:1009180011F908BD08B5074B1B681B6813F0100FC9
:1009280003D1044801F070FD08BD0248FFF76CFED2
:10093800F7E700BF4001002008B5024800F094FD29
:1009480008BD00BF2C0000207047000008B509480A
:10095800094B03600023436083604FF6FF72C26057
:100968000361836101F0D8FA00B908BDFFF774FE8E
:10097800FBE700BFF8000020004401400268094B73
:100988009A4200D0704782B000230193064B5A6CFC
:1009980042F400325A645B6C03F400330193019B08
:1009A80002B07047004401400038024008B50A48C8
:1009B8000A4B03604FF41653436000238360C360FF
:1009C80003610C2242618361C36101F0FAFB00B943
:1009D80008BDFFF741FEFBE7400100200010014081
:1009E80010B588B0002303930493059306930793E7
:1009F800026803F1804303F588339A4201D008B0B6
:100A080010BD0024019403F594335A6C42F010028F
:100A18005A645A6C02F010020192019A02941A6BFD
:100A280042F001021A631B6B03F001030293029B5D
:100A38004FF4C0630393022304930323069307230D
:100A4800079303A9054800F0FDFD2246214625200D
:100A580000F070FB252000F07DFBD0E7000002408D
:100A6800DFF834D0FFF770FF0C480D490D4A00231A
:100A780002E0D458C4500433C4188C42F9D30A4A4B
:100A88000A4C002301E013600432A242FBD301F0B8
:100A9800DBFFFFF735FE7047000002200000002052
:100AA80010000020BC2B00081000002024030020A8
:100AB800FEE7000010B504460E4B1A784FF47A731F
:100AC800B3FBF2F30C4A1068B0FBF3F000F046FBFE
:100AD80068B90F2C01D901200AE0002221464FF005
:100AE800FF3000F027FB054B1C60002000E00120D0
:100AF80010BD00BF040000200000002008000020F6
:100B080008B50B4B1A6842F400721A601A6842F46E
:100B180080621A601A6842F480721A60032000F03A
:100B2800F7FA0F20FFF7C6FFFFF7CCFE002008BD3D
:100B3800003C0240034A1168034B1B780B441360C6
:100B4800704700BF8801002004000020014B18688E
:100B5800704700BF880100204A4B5A6822F440328F
:100B68005A605A6841680A435A600268536823F415
:100B78008073536002685368016943EA0123536034
:100B88000268536823F040735360026853688168B1
:100B98000B4353600268936823F400639360026810
:100BA8009368C1680B439360826A374B9A4257D067
:100BB8000268936823F07063936002689368816A9F
:100BC8000B4393600268936823F040539360026874
:100BD8009368C16A0B4393600268936823F0020329
:100BE800936002689368017E43EA4103936090F83A
:100BF8002030002B3FD00268536843F400635360F1
:100C08000268536823F46043536001684B68426A82
:100C1800013A43EA42334B600268D36A23F4700313
:100C2800D3620168CB6AC269013A43EA0253CB62D4
:100C38000268936823F4007393600268936890F8DD
:100C4800301043EA412393600268936823F4806379
:100C5800936002689368416943EA8123936070470F
:100C68000268936823F0706393600268936823F0C6
:100C780040539360B0E70268536823F400635360FD
:100C8800CAE700BF002301400100000F38B310B5C8
:100C98000446036C43B1236C13F0100F0BD00120F2
:100CA800002384F83C3010BDFFF78AFB00236364FF
:100CB80084F83C30EFE7236C23F4885323F00203D5
:100CC80043F0020323642046FFF746FF00206064D8
:100CD800236C23F0030343F001032364E0E70120BE
:100CE8007047000010B582B013460022019290F8B8
:100CF8003C20012A00F094800446012280F83C2020
:100D08000268906810F0010F13D1906840F001005C
:100D18009060464A1068464AA2FB0020800C00EB0F
:100D28004000019002E001980138019001980028E4
:100D3800F9D12268906810F4807F03D0906820F47D
:100D4800807090602268906810F0010F5DD0206C70
:100D580020F4E06020F0010040F4807020645268C4
:100D680012F4806F05D0226C22F4405242F4805273
:100D78002264226C12F4805F34D0626C22F0060286
:100D88006264002284F83C20A26B2A48D063A26BDC
:100D980029481064A26B2948D06422686FF02200A9
:100DA80010602068426842F0806242602068826871
:100DB80042F48072826020680A4600F14C01A06B00
:100DC80000F0C0FA1E4B5B6813F01F0F0DD12368AB
:100DD8009A6812F0405F25D19A6842F080429A6082
:100DE80000201BE000226264CBE72368154A934287
:100DF80001D0002012E09A6812F0405F14D19A687E
:100E080042F080429A60002008E0236C43F010030F
:100E18002364636C43F001036364002002B010BDD7
:100E28000220FBE70020F9E70020F7E70000002098
:100E380083DE1B43770E0008550E0008610E00087C
:100E480000230140002001407047704708B5806BBF
:100E5800FFF7FBFF08BD704708B5806B40230364AC
:100E6800436C43F004034364FFF7F5FF08BD08B57E
:100E78000346806B026C12F0500F25D1036C43F4CB
:100E88000073036403689A6812F0405F19D1027E08
:100E9800BAB9DA6A12F4700F03D09A6812F4806F44
:100EA8000FD15A6822F020025A60036C23F4807331
:100EB8000364036C13F4805F03D1036C43F00103F4
:100EC8000364FFF7C1FF08BD026C12F0100F04D1D4
:100ED800826BD26C18469047F5E7FFF7BCFFF2E744
:100EE80030B482B00022019290F83C20012A00F030
:100EF800C0800346012280F83C200A68092A40D9AC
:100F08000468E06892B202EB42021E3A4FF0070C06
:100F18000CFA02F220EA0202E2601C68E0680A8821
:100F280002EB42021E3A8D6805FA02F20243E260C1
:100F38004A68062A3CD81C68606B02EB8202053AB4
:100F48004FF01F0C0CFA02F220EA020262631C68DE
:100F5800606B4A6802EB8202053AB1F800C00CFAED
:100F680002F2024362631868434A904250D01868FC
:100F7800414A904259D0002083F83C0002B030BC6E
:100F880070470468206992B202EB42024FF0070CE6
:100F98000CFA02F220EA020222611C6820690A881F
:100FA80002EB42028D6805FA02F202432261BFE7B2
:100FB8000C2A16D81D68286B02EB8202233A1F24DC
:100FC80004FA02F220EA02022A631D68286B4A68C2
:100FD80002EB8202233A0C8804FA02F202432A63E3
:100FE800C1E71D68E86A02EB8202413A1F2404FA4D
:100FF80002F220EA0202EA621D68E86A4A6802EB25
:101008008202413A0C8804FA02F20243EA62AAE731
:101018000A68122AABD1194A506820F400005060BF
:10102800506840F480005060A1E70A681448824282
:1010380001D0112A9FD1114A506820F480005060D5
:10104800506840F40000506009680D4A914292D1FE
:101058000C4A12680C49A1FB0212920C02EB8202A4
:1010680052000192019A002A85D0019A013A019210
:10107800F8E7022082E700BF00200140002301407A
:10108800120000100000002083DE1B43002807DB4D
:1010980000F01F02400901239340024A42F8203021
:1010A800704700BF00E100E0002808DB0901C9B271
:1010B80000F1604000F5614080F80013704700F0CF
:1010C8000F000901C9B2014B1954704714ED00E033
:1010D80000B500F00700C0F1070CBCF1040F28BFF1
:1010E8004FF0040C031D062B0FD9C31E4FF0FF3E13
:1010F8000EFA0CF021EA000199400EFA03FE22EAEA
:101108000E0241EA02005DF804FB0023EEE700004E
:10111800074AD36823F4E0631B041B0C000200F4A5
:10112800E060034343F0BF6343F40033D360704788
:1011380000ED00E010B50446054BD868C0F3022066
:10114800FFF7C6FF01462046FFF7AEFF10BD00BF00
:1011580000ED00E008B5FFF799FF08BD0138B0F1D0
:10116800807F0BD24FF0E0235861054AF02182F8C6
:1011780023100020986107221A61704701207047E8
:1011880000ED00E030B405682C6824F480242C605D
:10119800046863608368402B05D00368996003681E
:1011A800DA6030BC704703689A600368D960F8E772
:1011B80010B40368D9B21039094AA2FB01421209D6
:1011C800084CA25CC2655F2906D96FF30903043392
:1011D8008365806D10BC70476FF309038365F8E77A
:1011E800ABAAAAAAA02B0008836A826992B9012B2C
:1011F8000AD0022B02D00BB100207047C36A13F04B
:10120800807F28D100207047C36AB3F1C07F24D003
:1012180000207047B2F5005F09D0022B25D9032BB7
:1012280025D1C36A13F0807F23D100207047032B98
:1012380003D8DFE803F01404140A00207047C36AD7
:1012480013F0807F0DD100207047C36AB3F1C07FCF
:1012580009D0002070470120704701207047012005
:101268007047012070470120704701207047002017
:10127800704701207047000070B50446FFF766FC10
:10128800002C5BD00546022384F83530002384F80F
:1012980034302268136823F00103136023681A6846
:1012A80012F0010F0AD0FFF751FC431B052BF5D9AB
:1012B80020236365032084F8350070BD1A6820492F
:1012C80011406268A0680243E06802432069024353
:1012D80060690243A0690243E0690243206A02434D
:1012E8000A43616A04291ED01A602668756925F0C8
:1012F8000705636A1D43042B07D1A36A1D43E36AEC
:101308001BB12046FFF770FF90B975612046FFF7C3
:101318004FFFE26D3F239340836000206065012307
:1013280084F83530C9E7E16A206B01430A43DBE7FB
:1013380040236365012084F83500BEE70120BCE73F
:101348003F8010F038B50446856D90F834000128C8
:101358002BD0012084F8340094F83500C0B201285D
:1013680004D0002384F83430022038BD022084F8E9
:101378003500002060652046FFF704FFE26D3F233B
:101388009340AB602268136843F016031360236C24
:1013980023B12268136843F00803136022681368B6
:1013A80043F0010313600020DFE70220DDE770B59A
:1013B8000446866DFFF7CAFB94F83530DBB2022B82
:1013C80006D080236365002384F83430012070BD83
:1013D80005462268136823F01603136022685369D0
:1013E80023F080035361236CE3B12268136823F070
:1013F800080313602268136823F00103136023684D
:101408001B6813F0010F11D0FFF7A0FB431B052B3E
:10141800F5D920236365032084F83500002384F878
:101428003430D4E7A36C002BDFD1E3E7E26D3F2330
:101438009340B360012384F83530002084F83400E9
:10144800C5E790F83530DBB2022B03D08023436523
:1014580001207047052380F835300268136823F0AF
:101468000103136000207047F0B583B004460023E1
:101478000193724B1D68724BA3FB0535AD0A876D4E
:101488003E68C26D08239340334210D003681A683F
:1014980012F0040F0BD01A6822F004021A60C26D11
:1014A80008239340BB60436D43F001034365E26D3D
:1014B80001239340334209D02268526912F0800F09
:1014C80004D0BB60636D43F002036365E26D0423DF
:1014D8009340334209D02268126812F0020F04D0F8
:1014E800BB60636D43F004036365E26D10239340B2
:1014F800334224D02268126812F0080F1FD0BB6054
:1015080023681A6812F4802F0DD01B6813F4002F7B
:1015180004D1236C9BB12046984710E0A36C73B1AB
:10152800204698470BE01A6812F4807F03D11A68A6
:1015380022F008021A60236C0BB120469847E26D2E
:1015480020239340334255D02268126812F0100FBE
:1015580050D0BB6094F83530DBB2052B0ED0236831
:101568001A6812F4802F33D01B6813F4002F2AD185
:10157800636C002B3ED0204698473BE022681368F6
:1015880023F0160313602268536923F08003536124
:10159800236CA3B12268136823F008031360E26D7B
:1015A8003F239340BB60012384F83530002384F83F
:1015B8003430236D002B3FD0204698473CE0A36C85
:1015C800002BE7D1EBE7E36BA3B12046984711E086
:1015D8001A6812F4807F09D11A6822F010021A6082
:1015E800012384F83530002384F83430E36B0BB1E1
:1015F80020469847636DFBB1636D13F0010F17D058
:10160800052384F835302268136823F0010313603A
:10161800019B01330193AB4204D823681B6813F084
:10162800010FF5D1012384F83530002384F83430D4
:10163800E36C0BB12046984703B0F0BD00000020D2
:10164800B5814E1B00230F2B00F2DA8030B583B032
:1016580068E085684FEA430E032404FA0EF425EA8D
:101668000405CC6804FA0EF42C438460446824EA28
:1016780002044A68C2F300129A40224342605FE0C3
:10168800DC08083450F8242003F00705AD004FF0BB
:101698000F0E0EFA05FE22EA0E0E0A69AA4042EA69
:1016A8000E0240F824205FE0042200E0002202FA43
:1016B8000EF22A430234534D45F82420524A9468C6
:1016C8006FEA0C0224EA0C05D1F804E01EF4801F2E
:1016D80001D04CEA04054C4CA560E46802EA040514
:1016E800D1F804E01EF4001F01D04CEA0405464C72
:1016F800E560646802EA0405D1F804E01EF4003FDE
:1017080001D04CEA0405404C6560246822404D68CD
:1017180015F4803F01D04CEA04023B4C22600133AF
:101728000F2B6BD801229A400C6804EA020C32EAAB
:101738000404F4D14C6804F00304013C012C88D95A
:101748004A6802F00302032A09D0C4685D00032234
:10175800AA4024EA02048A68AA402243C2604A686E
:1017680002F00302022A8BD004684FEA430E0322D8
:1017780002FA0EF224EA02044A6802F0030202FAAC
:101788000EF2224302604A6812F4403FC7D000229A
:1017980001921E4A546C44F480445464526C02F41E
:1017A80080420192019A9C08A51C164A52F82550BD
:1017B80003F0030E4FEA8E0E0F2202FA0EF225EA0C
:1017C8000205134A90423FF471AF02F580629042DD
:1017D8000ED002F5806290420CD002F580629042F1
:1017E8000AD002F5806290423FF45EAF07225EE7BE
:1017F80001225CE702225AE7032258E703B030BD12
:10180800704700BF00380140003C014000380240EA
:10181800000002400AB18161704709048161704784
:10182800002800F0E08170B582B00446036813F028
:10183800010F3BD09F4B9B6803F00C03042B2CD06B
:101848009C4B9B6803F00C03082B21D06368B3F50D
:10185800803F4FD0B3F5A02F52D0964B1A6822F490
:1018680080321A601A6822F480221A606368002B9A
:1018780050D0FFF76BF905468E4B1B6813F4003FF9
:1018880014D1FFF763F9401B6428F5D90320B1E1AF
:10189800884B5B6813F4800FD8D0864B1B6813F411
:1018A800003F03D06368002B00F09F81236813F08A
:1018B800020F54D07F4B9B6813F00C0F3ED07D4B2A
:1018C8009B6803F00C03082B33D0E368002B68D027
:1018D800794B01221A60FFF739F90546754B1B68E9
:1018E80013F0020F54D1FFF731F9401B0228F5D944
:1018F80003207FE16F4A136843F480331360B5E730
:101908006C4B1A6842F480221A601A6842F48032DA
:101918001A60ABE7FFF71AF90546664B1B6813F424
:10192800003FC3D0FFF712F9401B6428F5D9032004
:1019380060E1604B5B6813F4800FC6D15D4B1B6898
:1019480013F0020F03D0E368012B40F05081594A8D
:10195800136823F0F803216943EAC103136023687D
:1019680013F0080F42D063696BB3534B0122C3F8DD
:10197800802EFFF7EBF805464E4B5B6F13F0020F16
:1019880034D1FFF7E3F8401B0228F5D9032031E1F1
:10199800484A136823F0F803216943EAC103136036
:1019A800DDE7454B00221A60FFF7D0F80546414BAA
:1019B8001B6813F0020FD2D0FFF7C8F8401B0228AB
:1019C800F5D9032016E13C4B0022C3F8802EFFF71F
:1019D800BDF80546374B5B6F13F0020F06D0FFF7D3
:1019E800B5F8401B0228F5D9032003E1236813F05A
:1019F800040F77D02F4B1B6C13F0805F33D100237B
:101A080001932C4B1A6C42F080521A641B6C03F041
:101A180080530193019B0125284B1B6813F4807F99
:101A280023D0A368012B34D0052B38D0214B1A6F53
:101A380022F001021A671A6F22F004021A67A368DB
:101A4800002B3DD0FFF782F806461A4B1B6F13F0A8
:101A5800020F46D1FFF77AF8801B41F2883398428B
:101A6800F3D90320C6E00025D6E7144A136843F4E7
:101A780080731360FFF76AF80646104B1B6813F46F
:101A8800807FCED1FFF762F8801B0228F5D90320AA
:101A9800B0E0084A136F43F001031367CFE7054B23
:101AA8001A6F42F004021A671A6F42F001021A67AD
:101AB800C5E700BF00380240000047420070004000
:101AC800FFF744F80646524B1B6F13F0020F08D07D
:101AD800FFF73CF8801B41F288339842F3D9032082
:101AE80088E0EDB9A369002B00F08380484A92682A
:101AF80002F00C02082A51D0022B17D0454B0022C5
:101B08001A66FFF723F80446414B1B6813F0007F61
:101B180042D0FFF71BF8001B0228F5D9032069E023
:101B28003B4A136C23F080531364DBE7394B0022E4
:101B38001A66FFF70BF80546354B1B6813F0007F54
:101B480006D0FFF703F8401B0228F5D9032051E01F
:101B5800E369226A1343626A43EA8213A26A52085B
:101B6800013A43EA0243E26A43EA0263284A5360BD
:101B7800284B01221A66FEF7E9FF0446244B1B682E
:101B880013F0007F06D1FEF7E1FF001B0228F5D90C
:101B980003202FE000202DE000202BE0012B2BD08C
:101BA8001B4B5B6803F48001E269914226D103F084
:101BB8003F02216A8A4223D1616A47F6C0721A40FD
:101BC800B2EB811F1ED103F44031A26A5208013AD8
:101BD800B1EB024F18D103F07063E26AB3EB026F06
:101BE80014D1002006E001207047012002E0012006
:101BF80000E0002002B070BD0120FBE70120F9E7FA
:101C08000120F7E70120F5E70120F3E70120F1E7DC
:101C1800003802400000474208B5264B9B6803F095
:101C28000C03042B41D0082B41D1224B5A6802F0F7
:101C38003F025B6813F4800F12D01E4B5968C1F342
:101C480088111D480023A1FB0001FEF7A1FA194BDA
:101C58005B68C3F3014301335B00B0FBF3F008BDDD
:101C6800144B5868C0F388104FEA401CBCEB000CBA
:101C78006EEB0E0E4FEA8E1343EA9C634FEA8C110B
:101C8800B1EB0C0163EB0E03DB0043EA5173C900AF
:101C980011EB000C43F10003990200234FEA8C205A
:101CA80041EA9C51FEF774FAD1E70348D7E70348A5
:101CB800D5E700BF0038024040787D010024F400D9
:101CC800002800F09B8070B50D4604464F4B1B68FA
:101CD80003F007038B4208D2CBB24C4A1370136847
:101CE80003F007038B4240F08B80236813F0020F48
:101CF80017D013F0040F04D0454A936843F4E05317
:101D08009360236813F0080F04D0414A936843F4A2
:101D1800604393603E4A936823F0F003A1680B4345
:101D28009360236813F0010F32D06368012B21D030
:101D38009A1E012A25D9364A126812F0020F61D07C
:101D480033498A6822F0030213438B60FEF7FEFED4
:101D580006462F4B9B6803F00C036268B3EB820FB7
:101D680016D0FEF7F3FE801B41F288339842F0D973
:101D7800032042E0264A126812F4003FE0D1012015
:101D88003BE0234A126812F0007FD9D1012034E0E9
:101D98001E4B1B6803F00703AB4207D9EAB21B4B83
:101DA8001A701B6803F00703AB422DD1236813F0A8
:101DB800040F06D0164A936823F4E053E1680B43F6
:101DC8009360236813F0080F07D0114A936823F42F
:101DD8006043216943EAC1039360FFF71DFF0C4B81
:101DE8009B68C3F303130B4AD35CD8400A4B1860B3
:101DF8000A4B1868FEF75EFE002070BD0120704790
:101E08000120FAE70120F8E70120F6E7003C02404C
:101E180000380240902B0008000000200800002035
:101E2800014B1868704700BF0000002008B5FFF795
:101E3800F7FF044B9B68C3F38223034AD35CD84063
:101E480008BD00BF00380240882B000808B5FFF71E
:101E5800E7FF044B9B68C3F34233034AD35CD84083
:101E680008BD00BF00380240882B00080368294AD3
:101E780090420ED0B0F1804F0BD0A2F57C42904238
:101E880007D002F58062904203D002F5806290424A
:101E980003D123F070034A6813431E4A90421AD0B4
:101EA800B0F1804F17D0A2F57C42904213D002F5D2
:101EB800806290420FD002F5806290420BD002F50A
:101EC8009A32904207D002F58062904203D002F520
:101ED8008062904203D123F44073CA68134323F00D
:101EE80080034A69134303608B68C3620B6883628B
:101EF800084B98420AD001234361036913F0010F8C
:101F080003D0036923F00103036170470B6903637E
:101F1800F1E700BF0000014040B310B5044690F857
:101F28003D30F3B1022384F83D30214651F8040BCB
:101F3800FFF79CFF012384F8463084F83E3084F88C
:101F48003F3084F8403084F8413084F8423084F8D7
:101F5800433084F8443084F8453084F83D3000201C
:101F680010BD80F83C30FEF709FDDBE70120704723
:101F7800026802F10C0353E8003F23F490730C321B
:101F880042E800310029F3D1026802F1140353E852
:101F9800003F23F00103143242E800310029F3D155
:101FA800036B012B05D0202380F842300023036304
:101FB8007047026802F10C0353E8003F23F0100356
:101FC8000C3242E800310029F3D1ECE790F84130B7
:101FD800DBB2212B01D0022070478368B3F5805F04
:101FE80017D0036A5A1C02621A7803685A60C38CB5
:101FF8009BB2013B9BB2C3844BB90268D36823F000
:102008008003D3600268D36843F04003D3600020A4
:1020180070470369002BE4D1036A1B880268C3F385
:1020280008035360036A02330362E0E710B504460D
:102038000268136923F44053C1680B431361836832
:1020480002691A4343691A43C3691A430168CB6892
:1020580023F4164323F00C031343CB60026853693F
:1020680023F4407381690B4353610368314A9342F7
:1020780006D002F58062934202D0FFF7D7FE01E056
:10208800FFF7E4FEE369B3F5004F29D000210318F8
:1020980049411B1841F10001C90041EA5371DB00B5
:1020A800181863684FEA83024FEA937341F10001FD
:1020B800FEF76EF8204AA2FB00314909642303FBAE
:1020C80011031B013233A2FB03235B0903F0F00267
:1020D80002EB011203F00F03216813448B6010BD5B
:1020E8000023021843EB0301121841F10001C90053
:1020F80041EA5271D200101841F100016268921849
:102108005B41FEF745F80C4AA2FB003149096423FC
:1021180003FB1103DB003233A2FB03235B095A00E4
:1021280002F4F87202EB011203F00703216813446A
:102138008B60D4E7001001401F85EB512DE9F04377
:1021480083B005460E4617469946DDF828802B6869
:102158001C6836EA04040CBF01240024BC4228D1C0
:10216800B8F1FF3FF3D0FEF7F1FCA0EB09004045C2
:1021780023D8B8F1000F22D02B68DA6812F0040FC8
:10218800E5D0802EE3D0402EE1D01A6812F0080F77
:10219800DDD0002401941A6801925B680193019BC9
:1021A8002846FFF7E5FE08236B6485F840400120C8
:1021B80000E0002003B0BDE8F0830320FAE7032025
:1021C800F8E760B310B5044690F8413013B3242300
:1021D80084F841302268D36823F40053D360204642
:1021E800FFF724FF2268136923F4904313612268E0
:1021F800536923F02A0353612268D36843F40053D8
:10220800D36000206064202384F8413084F8423091
:10221800606310BD80F84030FEF7E2FBD7E701208D
:1022280070472DE9F04182B01E4690F84130DBB28C
:10223800202B56D104460D469046002955D00AB9A0
:1022480001204FE000234364212380F84130FEF74A
:102258007DFC0746A4F82480A4F82680A368B3F57B
:10226800805F02D04FF0000814E023692BB34FF0D1
:1022780000080FE0202384F84130032032E038F8CA
:10228800023B2268C3F308035360E28C92B2013A1E
:1022980092B2E284E38C9BB293B100963B46002253
:1022A80080212046FFF74AFF0028E3D1002DE6D021
:1022B80015F8012B23685A60E7E7A8460025E9E7E7
:1022C80000963B46002240212046FFF737FF18B909
:1022D800202384F8413005E0202384F8413003208E
:1022E80000E0022002B0BDE8F0810120FAE7704763
:1022F80008B50168CA6822F04002CA60202280F846
:102308004120FFF7F4FF002008BD7047704708B56B
:10231800806B0023C385C384FFF7F8FF08BD7047AF
:1023280090F84230DBB2222B69D18368B3F5805F25
:102338004FD0826AB3F5805F04D0002B56D1036971
:10234800002B53D103685B681370836A013383627F
:10235800C38D9BB2013B9BB2C385002B51D100B505
:1023680083B00268D36823F02003D3600268D3687F
:1023780023F48073D3600268536923F00103536127
:10238800202380F8423000234363036B012B33D1B1
:1023980000230363026802F10C0353E8003F23F0B3
:1023A80010030C3242E800310029F3D103681A689F
:1023B80012F0100F06D0002201921A6801925B6891
:1023C8000193019B818DFFF7AAFF002003B05DF800
:1023D80004FB0269002AACD1826A03685B68C3F314
:1023E80008031380836A02338362B1E703685B687A
:1023F80003F07F031370A8E7FFF787FFE5E70220E4
:10240800704700207047000010B582B0044602688B
:102418001368D068516913F00F0F09D113F0200F1A
:102428000CD010F0200F09D02046FFF779FF16E0F6
:1024380011F0010115D110F4907F12D1216B0129FF
:1024480079D013F0800F03D010F0800F40F0148182
:1024580013F0400F03D010F0400F40F0118102B08C
:1024680010BD13F0010F06D010F4807F03D0626C0A
:1024780042F00102626413F0040F04D019B1626CD7
:1024880042F00202626413F0020F04D019B1626CC8
:1024980042F00402626413F0080F07D010F0200F16
:1024A80000D119B1626C42F008026264626C002AC1
:1024B800D5D013F0200F02D010F0200F29D12368B7
:1024C8005B6903F04003626C12F0080F00D163B33C
:1024D8002046FFF74DFD23685B6913F0400F20D0BD
:1024E800226802F1140353E8003F23F0400314323A
:1024F80042E800310029F3D1E36B73B1624A1A65EF
:10250800E06BFEF79EFF0028A9D0E06B036D9847AB
:10251800A5E72046FFF704FFD1E72046FFF7F6FEC0
:102528009DE72046FFF7F2FE99E72046FFF7EEFE0B
:102538000023636493E713F0100F82D010F0100F9C
:102548003FF47FAF0023019313680193536801930D
:10255800019B536913F0400F52D0E26B13685B681C
:102568009BB2002B3FF47BAFA18D99427FF677AFEA
:10257800E385D369B3F5807F37D0226802F10C0375
:1025880053E8003F23F480730C3242E800310029FD
:10259800F3D1226802F1140353E8003F23F001034A
:1025A800143242E800310029F3D1226802F1140301
:1025B80053E8003F23F04003143242E80031002979
:1025C800F3D1202384F8423000232363226802F1E8
:1025D8000C0353E8003F23F010030C3242E80031AB
:1025E8000029F3D1E06BFEF7E2FE02236363A18DBD
:1025F800E38D9BB2C91A89B22046FFF790FE2EE7F9
:10260800A18DE38D9BB2C91A89B2E38D9BB2002BD1
:102618003FF425AF00293FF422AF226802F10C03F2
:1026280053E8003F23F490730C3242E8003000284E
:10263800F3D1226802F1140353E8003F23F00103A9
:10264800143242E800300028F3D1202384F84230C5
:1026580000232363226802F10C0353E8003F23F0B0
:1026680010030C3242E800300028F3D102236363E0
:102678002046FFF754FEF2E62046FFF7A7FCEEE6F9
:102688002046FFF735FEEAE61723000881628285B7
:10269800C28500234364222380F84230036923B1B2
:1026A8000268D36843F48073D3600268536943F0C7
:1026B800010353610268D36843F02003D36000200C
:1026C800704708B590F84230DBB2202B08D149B1E9
:1026D8000AB9012008BD00230363FFF7D7FFF9E714
:1026E8000220F7E70120F5E72DE9F047089D0E469F
:1026F80004460F46002B4AD194468C45B2FA82F222
:1027080060D942B1C2F12003974020FA03F30CFAD2
:1027180002FC1F4394404FEA1C4E1FFA8CF6B7FB8D
:10272800FEF1230C0EFB117743EA074301FB06F089
:1027380098420AD91CEB030301F1FF3780F0158199
:10274800984240F21281023963441B1AA4B2B3FBC7
:10275800FEF00EFB103344EA034400FB06F6A642E3
:102768000AD91CEB040400F1FF3380F00081A64273
:1027780040F2FD806444023840EA0140A41B002175
:102788001DB1D4400023C5E90043BDE8F0878B4262
:1027980005D90DB1C5E9000100210846F5E7B3FAEE
:1027A80083F1002946D1B34202D3824200F2F58078
:1027B800841A66EB030201201746002DE5D0C5E90F
:1027C8000047E2E7002A40F09380A1EB0C034FEAB0
:1027D8001C471FFA8CFE0121B3FBF7F607FB1630E6
:1027E800230C43EA00430EFB06F0984208D91CEB81
:1027F800030306F1FF3802D2984200F2D080464621
:102808001B1AA4B2B3FBF7F007FB103344EA0344E6
:102818000EFB00FEA64508D91CEB040400F1FF33AB
:1028280002D2A64500F2B6801846A4EB0E0440EA90
:102838000640A5E7C1F120078B4022FA07FC4CEAC5
:10284800030C06FA01FE20FA07F426FA07F344EA15
:102858000E0400FA01F84FEA1C404FEA1449B3FB92
:10286800F0FE1FFA8CF600FB1E3349EA03430EFB09
:1028780006F9994502FA01F20BD91CEB03030EF194
:10288800FF3A80F08580994540F28280AEF1020ED1
:102898006344A3EB0909A4B2B9FBF0F300FB139955
:1028A80044EA094403FB06F6A64208D91CEB0404D3
:1028B80003F1FF3068D2A64266D9023B644443EA7A
:1028C8000E40A41BA0FB02E6B4427346B14652D3A5
:1028D8004FD05DB1B8EB030264EB090404FA07F7C3
:1028E80022FA01F31F43CC40C5E9007400214CE7EC
:1028F800C2F1200120FA01F30CFA02FC26FA01F1D8
:10290800964033434FEA1C471FFA8CFEB1FBF7F0A1
:1029180007FB1016190C41EA064100FB0EF68E4221
:1029280004FA02F408D91CEB010100F1FF382DD29A
:102938008E422BD902386144891B9BB2B1FBF7F652
:1029480007FB161143EA014306FB0EF1994208D929
:102958001CEB030306F1FF3814D2994212D9023E48
:1029680063445B1A46EA004136E73946EDE6184605
:1029780002E7F045ADD2BEEB020366EB0C06013868
:10298800B146A6E74646ECE7034698E74046D3E754
:10299800D6467EE76444023847E708460DE7023E1C
:1029A80063442DE7830730B547D0541E002A3ED034
:1029B800CAB2034601E0013C39D303F8012B9D0755
:1029C800F9D1032C2CD9CDB205EB05250F2C05EB3D
:1029D800054535D9A4F1100222F00F0C03F1100EB1
:1029E800E6444FEA121C1A46C2E90055C2E90255EC
:1029F80010327245F8D10CF1010214F00C0F03EB00
:102A0800021204F00F0C13D0ACF1040323F00303FB
:102A18000433134442F8045B9342FBD10CF00304E3
:102A28002CB1C9B21C4403F8011BA342FBD130BD31
:102A380064461346002CF4D1F9E703461446C0E770
:102A48001A46A446E0E700BF70B50F4B0F4DAB42E6
:102A5800A3EB050607D0B610002455F8043B013453
:102A68009847A642F9D800F07FF8094D094B5E1B3C
:102A7800AB424FEAA60606D0002455F8043B0134C1
:102A88009847A642F9D870BDB02B0008B02B0008B3
:102A9800B02B0008B82B0008704700BF704700BF74
:102AA800024B13B1024800F005B87047000000005F
:102AB800C92A0008002301461A46184600F014B82F
:102AC80038B5074D074C2C1BA41005D0013C55F810
:102AD800043D9847002CF9D1BDE8384000F04AB8C9
:102AE800BC2B0008B82B00082DE9F8431B4D0646FF
:102AF800286898460F469146FFF7CEFF184B1C688A
:102B08001CB3286865681F2D22DC4EB96B1C023582
:102B1800636044F82570FFF7C1FF0020BDE8F88323
:102B280004EB85010123C1F88890D4F88821AB40D3
:102B38001A43022EC4F88821C1F80881E6D1D4F8D6
:102B48008C211A43C4F88C21E0E7064C1C60D8E7B6
:102B5800FFF7A4FF4FF0FF30E0E700BF0C000020B4
:102B68009001002094010020F8B500BFF8BC08BC13
:102B78009E467047F8B500BFF8BC08BC9E46704733
:102B88000000000001020304000000000000000033
:102B980001020304060708090006101600061016AD
:082BA80048FBFF7F0100000063
:082BB000A92A00083502000803
:042BB8000D02000802
:102BBC000024F40001000000100000008C01002033
:0400000508000A697C
:00000001FF
